{
    "contractName": "IDOBase",
    "abi": [
        {
            "inputs": [
                {
                    "internalType": "address",
                    "name": "_factoryAddress",
                    "type": "address"
                },
                {
                    "internalType": "address",
                    "name": "_teamAddress",
                    "type": "address"
                }
            ],
            "stateMutability": "nonpayable",
            "type": "constructor"
        },
        {
            "inputs": [],
            "name": "IDOCreator",
            "outputs": [
                {
                    "internalType": "address payable",
                    "name": "",
                    "type": "address"
                }
            ],
            "stateMutability": "view",
            "type": "function"
        },
        {
            "inputs": [],
            "name": "IdoCreatorClaim",
            "outputs": [
                {
                    "internalType": "uint256",
                    "name": "",
                    "type": "uint256"
                }
            ],
            "stateMutability": "view",
            "type": "function"
        },
        {
            "inputs": [],
            "name": "IdoCreatorClaimTime",
            "outputs": [
                {
                    "internalType": "uint256",
                    "name": "",
                    "type": "uint256"
                }
            ],
            "stateMutability": "view",
            "type": "function"
        },
        {
            "inputs": [],
            "name": "active",
            "outputs": [
                {
                    "internalType": "bool",
                    "name": "",
                    "type": "bool"
                }
            ],
            "stateMutability": "view",
            "type": "function"
        },
        {
            "inputs": [
                {
                    "internalType": "address[]",
                    "name": "_toWhitelist",
                    "type": "address[]"
                }
            ],
            "name": "addwhitelistedAddresses",
            "outputs": [],
            "stateMutability": "nonpayable",
            "type": "function"
        },
        {
            "inputs": [],
            "name": "cancelAndTransferTokensToIdoCreator",
            "outputs": [],
            "stateMutability": "nonpayable",
            "type": "function"
        },
        {
            "inputs": [],
            "name": "claimTokens",
            "outputs": [],
            "stateMutability": "nonpayable",
            "type": "function"
        },
        {
            "inputs": [],
            "name": "closeTime",
            "outputs": [
                {
                    "internalType": "uint256",
                    "name": "",
                    "type": "uint256"
                }
            ],
            "stateMutability": "view",
            "type": "function"
        },
        {
            "inputs": [],
            "name": "collectFundsRaised",
            "outputs": [],
            "stateMutability": "nonpayable",
            "type": "function"
        },
        {
            "inputs": [],
            "name": "decimals",
            "outputs": [
                {
                    "internalType": "uint8",
                    "name": "",
                    "type": "uint8"
                }
            ],
            "stateMutability": "view",
            "type": "function"
        },
        {
            "inputs": [],
            "name": "factoryAddress",
            "outputs": [
                {
                    "internalType": "address payable",
                    "name": "",
                    "type": "address"
                }
            ],
            "stateMutability": "view",
            "type": "function"
        },
        {
            "inputs": [],
            "name": "getRefund",
            "outputs": [],
            "stateMutability": "nonpayable",
            "type": "function"
        },
        {
            "inputs": [],
            "name": "hardCapInWei",
            "outputs": [
                {
                    "internalType": "uint256",
                    "name": "",
                    "type": "uint256"
                }
            ],
            "stateMutability": "view",
            "type": "function"
        },
        {
            "inputs": [],
            "name": "idoId",
            "outputs": [
                {
                    "internalType": "uint256",
                    "name": "",
                    "type": "uint256"
                }
            ],
            "stateMutability": "view",
            "type": "function"
        },
        {
            "inputs": [],
            "name": "invest",
            "outputs": [],
            "stateMutability": "payable",
            "type": "function"
        },
        {
            "inputs": [],
            "name": "linkDiscord",
            "outputs": [
                {
                    "internalType": "bytes32",
                    "name": "",
                    "type": "bytes32"
                }
            ],
            "stateMutability": "view",
            "type": "function"
        },
        {
            "inputs": [],
            "name": "linkTelegram",
            "outputs": [
                {
                    "internalType": "bytes32",
                    "name": "",
                    "type": "bytes32"
                }
            ],
            "stateMutability": "view",
            "type": "function"
        },
        {
            "inputs": [],
            "name": "linkTwitter",
            "outputs": [
                {
                    "internalType": "bytes32",
                    "name": "",
                    "type": "bytes32"
                }
            ],
            "stateMutability": "view",
            "type": "function"
        },
        {
            "inputs": [],
            "name": "linkWebsite",
            "outputs": [
                {
                    "internalType": "bytes32",
                    "name": "",
                    "type": "bytes32"
                }
            ],
            "stateMutability": "view",
            "type": "function"
        },
        {
            "inputs": [],
            "name": "listingPriceInWei",
            "outputs": [
                {
                    "internalType": "uint256",
                    "name": "",
                    "type": "uint256"
                }
            ],
            "stateMutability": "view",
            "type": "function"
        },
        {
            "inputs": [],
            "name": "maxInvestInWei",
            "outputs": [
                {
                    "internalType": "uint256",
                    "name": "",
                    "type": "uint256"
                }
            ],
            "stateMutability": "view",
            "type": "function"
        },
        {
            "inputs": [],
            "name": "minInvestInWei",
            "outputs": [
                {
                    "internalType": "uint256",
                    "name": "",
                    "type": "uint256"
                }
            ],
            "stateMutability": "view",
            "type": "function"
        },
        {
            "inputs": [],
            "name": "openTime",
            "outputs": [
                {
                    "internalType": "uint256",
                    "name": "",
                    "type": "uint256"
                }
            ],
            "stateMutability": "view",
            "type": "function"
        },
        {
            "inputs": [],
            "name": "remainingTokensAddress",
            "outputs": [
                {
                    "internalType": "address",
                    "name": "",
                    "type": "address"
                }
            ],
            "stateMutability": "view",
            "type": "function"
        },
        {
            "inputs": [],
            "name": "saleTitle",
            "outputs": [
                {
                    "internalType": "bytes32",
                    "name": "",
                    "type": "bytes32"
                }
            ],
            "stateMutability": "view",
            "type": "function"
        },
        {
            "inputs": [
                {
                    "internalType": "address",
                    "name": "_IdoCreator",
                    "type": "address"
                },
                {
                    "internalType": "address",
                    "name": "_tokenAddress",
                    "type": "address"
                },
                {
                    "internalType": "address",
                    "name": "_remainingTokensAddress",
                    "type": "address"
                }
            ],
            "name": "setAddresses",
            "outputs": [],
            "stateMutability": "nonpayable",
            "type": "function"
        },
        {
            "inputs": [
                {
                    "internalType": "uint256",
                    "name": "_totalTokens",
                    "type": "uint256"
                },
                {
                    "internalType": "uint256",
                    "name": "_tokenPriceInWei",
                    "type": "uint256"
                },
                {
                    "internalType": "uint256",
                    "name": "_hardCapInWei",
                    "type": "uint256"
                },
                {
                    "internalType": "uint256",
                    "name": "_softCapInWei",
                    "type": "uint256"
                },
                {
                    "internalType": "uint256",
                    "name": "_maxInvestInWei",
                    "type": "uint256"
                },
                {
                    "internalType": "uint256",
                    "name": "_minInvestInWei",
                    "type": "uint256"
                },
                {
                    "internalType": "uint256",
                    "name": "_openTime",
                    "type": "uint256"
                },
                {
                    "internalType": "uint256",
                    "name": "_closeTime",
                    "type": "uint256"
                },
                {
                    "internalType": "uint8",
                    "name": "_decimals",
                    "type": "uint8"
                }
            ],
            "name": "setGeneralInfo",
            "outputs": [],
            "stateMutability": "nonpayable",
            "type": "function"
        },
        {
            "inputs": [
                {
                    "internalType": "uint256",
                    "name": "_idoId",
                    "type": "uint256"
                }
            ],
            "name": "setIdoInfo",
            "outputs": [],
            "stateMutability": "nonpayable",
            "type": "function"
        },
        {
            "inputs": [
                {
                    "internalType": "bytes32",
                    "name": "_saleTitle",
                    "type": "bytes32"
                },
                {
                    "internalType": "bytes32",
                    "name": "_linkTelegram",
                    "type": "bytes32"
                },
                {
                    "internalType": "bytes32",
                    "name": "_linkDiscord",
                    "type": "bytes32"
                },
                {
                    "internalType": "bytes32",
                    "name": "_linkTwitter",
                    "type": "bytes32"
                },
                {
                    "internalType": "bytes32",
                    "name": "_linkWebsite",
                    "type": "bytes32"
                }
            ],
            "name": "setStringInfo",
            "outputs": [],
            "stateMutability": "nonpayable",
            "type": "function"
        },
        {
            "inputs": [],
            "name": "softCapInWei",
            "outputs": [
                {
                    "internalType": "uint256",
                    "name": "",
                    "type": "uint256"
                }
            ],
            "stateMutability": "view",
            "type": "function"
        },
        {
            "inputs": [],
            "name": "teamAddress",
            "outputs": [
                {
                    "internalType": "address payable",
                    "name": "",
                    "type": "address"
                }
            ],
            "stateMutability": "view",
            "type": "function"
        },
        {
            "inputs": [],
            "name": "token",
            "outputs": [
                {
                    "internalType": "contract IERC20",
                    "name": "",
                    "type": "address"
                }
            ],
            "stateMutability": "view",
            "type": "function"
        },
        {
            "inputs": [],
            "name": "tokenPriceInWei",
            "outputs": [
                {
                    "internalType": "uint256",
                    "name": "",
                    "type": "uint256"
                }
            ],
            "stateMutability": "view",
            "type": "function"
        },
        {
            "inputs": [],
            "name": "tokensLeft",
            "outputs": [
                {
                    "internalType": "uint256",
                    "name": "",
                    "type": "uint256"
                }
            ],
            "stateMutability": "view",
            "type": "function"
        },
        {
            "inputs": [],
            "name": "totalCollectedWei",
            "outputs": [
                {
                    "internalType": "uint256",
                    "name": "",
                    "type": "uint256"
                }
            ],
            "stateMutability": "view",
            "type": "function"
        },
        {
            "inputs": [],
            "name": "totalInvestors",
            "outputs": [
                {
                    "internalType": "uint256",
                    "name": "",
                    "type": "uint256"
                }
            ],
            "stateMutability": "view",
            "type": "function"
        },
        {
            "inputs": [],
            "name": "totalTokens",
            "outputs": [
                {
                    "internalType": "uint256",
                    "name": "",
                    "type": "uint256"
                }
            ],
            "stateMutability": "view",
            "type": "function"
        },
        {
            "stateMutability": "payable",
            "type": "receive"
        }
    ],
    "bytecode": "60806040523480156200001157600080fd5b5060405162001aa338038062001aa38339810160408190526200003491620000d1565b60016000556001600160a01b038216158015906200005a57506001600160a01b03811615155b620000825760405162461bcd60e51b8152600401620000799062000108565b60405180910390fd5b600180546001600160a01b039384166001600160a01b031991821617909155600280549290931691161790556200013f565b80516001600160a01b0381168114620000cc57600080fd5b919050565b60008060408385031215620000e4578182fd5b620000ef83620000b4565b9150620000ff60208401620000b4565b90509250929050565b60208082526018908201527f617267732063616e6e6f74206265206164647265737320300000000000000000604082015260600190565b611954806200014f6000396000f3fe60806040526004361061021e5760003560e01c806389bc9cb511610123578063b9ff4b94116100ab578063e861e34d1161006f578063e861e34d1461053b578063e8b5e51f14610550578063eaa2288b14610558578063f6c638cf14610578578063fc0c546a1461058d5761022d565b8063b9ff4b94146104d2578063bd7eb7fc146104e7578063c502b13b146104fc578063c51d16b614610511578063d6c86b1b146105265761022d565b8063a7578aa5116100f2578063a7578aa514610469578063b2d5ae441461047e578063b31f8f9314610493578063b4256888146104a8578063b4f0e4a7146104bd5761022d565b806389bc9cb5146103ff5780638ed03b431461041f578063966dae0e1461043f5780639fa1eccc146104545761022d565b80634b8eb855116101a65780636fb0cbb7116101755780636fb0cbb71461038b57806374458306146103a0578063789cdecb146103b55780637e1c0c09146103d557806389771dd8146103ea5761022d565b80634b8eb855146103375780634d48b4871461034c578063627749e6146103615780636cb96287146103765761022d565b806329b8caff116101ed57806329b8caff146102b65780632f8de810146102cb578063313ce567146102e0578063363bf9641461030257806348c54b9d146103225761022d565b806302fb0c5e146102325780630ca99ca81461025d5780630cdc1fc51461027f5780631c75f085146102945761022d565b3661022d5761022b6105a2565b005b600080fd5b34801561023e57600080fd5b506102476107ca565b60405161025491906113b0565b60405180910390f35b34801561026957600080fd5b506102726107d3565b60405161025491906113bb565b34801561028b57600080fd5b506102726107d9565b3480156102a057600080fd5b506102a96107df565b6040516102549190611383565b3480156102c257600080fd5b506102726107ee565b3480156102d757600080fd5b506102726107f4565b3480156102ec57600080fd5b506102f56107fa565b604051610254919061175a565b34801561030e57600080fd5b5061022b61031d3660046111d0565b610803565b34801561032e57600080fd5b5061022b6108c5565b34801561034357600080fd5b50610272610abf565b34801561035857600080fd5b5061022b610ac5565b34801561036d57600080fd5b50610272610c30565b34801561038257600080fd5b5061022b610c36565b34801561039757600080fd5b50610272610ccb565b3480156103ac57600080fd5b50610272610cd1565b3480156103c157600080fd5b5061022b6103d03660046112db565b610cd7565b3480156103e157600080fd5b50610272610d06565b3480156103f657600080fd5b50610272610d0c565b34801561040b57600080fd5b5061022b61041a366004611212565b610d12565b34801561042b57600080fd5b5061022b61043a36600461130b565b610de5565b34801561044b57600080fd5b506102a9610eca565b34801561046057600080fd5b50610272610ed9565b34801561047557600080fd5b50610272610edf565b34801561048a57600080fd5b5061022b610ee5565b34801561049f57600080fd5b506102726110a4565b3480156104b457600080fd5b506102726110aa565b3480156104c957600080fd5b506102726110b0565b3480156104de57600080fd5b506102a96110b6565b3480156104f357600080fd5b506102a96110c5565b34801561050857600080fd5b506102726110d9565b34801561051d57600080fd5b506102726110df565b34801561053257600080fd5b506102726110e5565b34801561054757600080fd5b506102726110eb565b61022b6105a2565b34801561056457600080fd5b5061022b6105733660046112a1565b6110f1565b34801561058457600080fd5b5061027261114c565b34801561059957600080fd5b506102a9611152565b600260005414156105ce5760405162461bcd60e51b81526004016105c59061165d565b60405180910390fd5b60026000908155338152601c602052604090205460ff166106015760405162461bcd60e51b81526004016105c59061155f565b60195460ff166106235760405162461bcd60e51b81526004016105c5906115bb565b600f544210156106455760405162461bcd60e51b81526004016105c590611694565b60105442106106665760405162461bcd60e51b81526004016105c5906113c4565b601254600a54106106895760405162461bcd60e51b81526004016105c59061160b565b6000600d54116106ab5760405162461bcd60e51b81526004016105c59061172a565b600d546106b734611161565b11156106d55760405162461bcd60e51b81526004016105c59061144b565b336000908152601b60205260408120546106f0903490611768565b9050600554811015806107075750601254600a5410155b6107235760405162461bcd60e51b81526004016105c5906114d9565b600454158061073457506004548111155b6107505760405162461bcd60e51b81526004016105c59061141b565b336000908152601b602052604090205461077a57600b8054906000610774836118ed565b91905055505b34600a600082825461078c9190611768565b9091555050336000908152601b602052604090208190556107ac34611161565b600d60008282546107bd91906118d6565b9091555050600160005550565b60195460ff1681565b60125481565b60165481565b6002546001600160a01b031681565b600b5481565b60095481565b60065460ff1681565b6001546001600160a01b0316331461082d5760405162461bcd60e51b81526004016105c590611510565b6001600160a01b0383161580159061084d57506001600160a01b03821615155b801561086157506001600160a01b03811615155b61087d5760405162461bcd60e51b81526004016105c5906113e4565b600680546001600160a01b0394851661010002610100600160a81b0319909116179055600380549284166001600160a01b0319938416179055600e8054919093169116179055565b336000908152601c602052604090205460ff166108f45760405162461bcd60e51b81526004016105c59061155f565b60195460ff166109165760405162461bcd60e51b81526004016105c5906115bb565b336000908152601b60205260409020546109425760405162461bcd60e51b81526004016105c590611479565b336000908152601d602052604090205460ff16156109725760405162461bcd60e51b81526004016105c5906114a2565b600260005414156109955760405162461bcd60e51b81526004016105c59061165d565b6002600090815533808252601d60209081526040808420805460ff19166001179055600354601b909252909220546001600160a01b03929092169163a9059cbb91906109e090611161565b6040518363ffffffff1660e01b81526004016109fd929190611397565b602060405180830381600087803b158015610a1757600080fd5b505af1158015610a2b573d6000803e3d6000fd5b505050506040513d601f19601f82011682018060405250810190610a4f9190611281565b610a5857600080fd5b478015610ab75760008160075411610a7257600754610a74565b815b60065460405191925061010090046001600160a01b0316906108fc8315029083906000818181858888f19350505050158015610ab4573d6000803e3d6000fd5b50505b506001600055565b60175481565b60065461010090046001600160a01b03163314801590610af057506002546001600160a01b03163314155b15610afa57600080fd5b60195460ff16610b0957600080fd5b6019805460ff191690556003546040516370a0823160e01b81526000916001600160a01b0316906370a0823190610b44903090600401611383565b60206040518083038186803b158015610b5c57600080fd5b505afa158015610b70573d6000803e3d6000fd5b505050506040513d601f19601f82011682018060405250810190610b9491906112f3565b90508015610c2d5760035460065460405163a9059cbb60e01b81526001600160a01b039283169263a9059cbb92610bd992610100909104909116908590600401611397565b602060405180830381600087803b158015610bf357600080fd5b505af1158015610c07573d6000803e3d6000fd5b505050506040513d601f19601f82011682018060405250810190610c2b9190611281565b505b50565b60105481565b60065461010090046001600160a01b03163314610c655760405162461bcd60e51b81526004016105c5906115e3565b60195460ff16610c7457600080fd5b600854421015610c8357600080fd5b4715610cc9576006546040516001600160a01b0361010090920491909116904780156108fc02916000818181858888f19350505050158015610c2d573d6000803e3d6000fd5b565b60075481565b60155481565b6001546001600160a01b03163314610d015760405162461bcd60e51b81526004016105c590611510565b601a55565b600c5481565b60185481565b60065461010090046001600160a01b0316331480610d3a57506001546001600160a01b031633145b610d565760405162461bcd60e51b81526004016105c5906116f3565b80610d6057600080fd5b60005b81811015610de0576001601c6000858585818110610d9157634e487b7160e01b600052603260045260246000fd5b9050602002016020810190610da691906111af565b6001600160a01b031681526020810191909152604001600020805460ff191691151591909117905580610dd8816118ed565b915050610d63565b505050565b6001546001600160a01b03163314610e0f5760405162461bcd60e51b81526004016105c590611510565b60008911610e1c57600080fd5b60008811610e2957600080fd5b60008311610e3657600080fd5b60008211610e4357600080fd5b60008711610e5057600080fd5b610e5a888a6118b7565b871115610e6657600080fd5b86861115610e7357600080fd5b84841115610e8057600080fd5b818310610e8c57600080fd5b600c899055600d98909855600996909655601294909455601392909255600455600555600f556010556006805460ff191660ff909216919091179055565b6001546001600160a01b031681565b60045481565b60115481565b336000908152601c602052604090205460ff16610f145760405162461bcd60e51b81526004016105c59061155f565b336000908152601b6020526040902054610f405760405162461bcd60e51b81526004016105c590611479565b336000908152601d602052604090205460ff1615610f705760405162461bcd60e51b81526004016105c5906114a2565b60026000541415610f935760405162461bcd60e51b81526004016105c59061165d565b600260005560195460ff161561102c57600f54421015610fc55760405162461bcd60e51b81526004016105c5906116cb565b601054421015610fe75760405162461bcd60e51b81526004016105c590611635565b6000601354116110095760405162461bcd60e51b81526004016105c590611596565b601354600a541061102c5760405162461bcd60e51b81526004016105c590611535565b336000908152601d60209081526040808320805460ff19166001179055601b909152902054478061105c57600080fd5b80821115611068578091505b811561109b57604051339083156108fc029084906000818181858888f19350505050158015610ab4573d6000803e3d6000fd5b50506001600055565b600d5481565b600f5481565b601a5481565b600e546001600160a01b031681565b60065461010090046001600160a01b031681565b60145481565b600a5481565b60135481565b60055481565b60065461010090046001600160a01b031633148061111957506001546001600160a01b031633145b6111355760405162461bcd60e51b81526004016105c5906116f3565b601494909455601592909255601755601655601855565b60085481565b6003546001600160a01b031681565b600954600654600091906111799060ff16600a6117e6565b61118390846118b7565b61118d9190611780565b92915050565b80356001600160a01b03811681146111aa57600080fd5b919050565b6000602082840312156111c0578081fd5b6111c982611193565b9392505050565b6000806000606084860312156111e4578182fd5b6111ed84611193565b92506111fb60208501611193565b915061120960408501611193565b90509250925092565b60008060208385031215611224578182fd5b823567ffffffffffffffff8082111561123b578384fd5b818501915085601f83011261124e578384fd5b81358181111561125c578485fd5b866020808302850101111561126f578485fd5b60209290920196919550909350505050565b600060208284031215611292578081fd5b815180151581146111c9578182fd5b600080600080600060a086880312156112b8578081fd5b505083359560208501359550604085013594606081013594506080013592509050565b6000602082840312156112ec578081fd5b5035919050565b600060208284031215611304578081fd5b5051919050565b60008060008060008060008060006101208a8c031215611329578384fd5b8935985060208a0135975060408a0135965060608a0135955060808a0135945060a08a0135935060c08a0135925060e08a013591506101008a013560ff81168114611372578182fd5b809150509295985092959850929598565b6001600160a01b0391909116815260200190565b6001600160a01b03929092168252602082015260400190565b901515815260200190565b90815260200190565b60208082526006908201526510db1bdcd95960d21b604082015260600190565b60208082526017908201527f4e6f205a65726f204164647265737320616c6c6f776564000000000000000000604082015260600190565b60208082526016908201527513585e081a5b9d995cdd1b595b9d081c995858da195960521b604082015260600190565b602080825260149082015273139bdd081b5d58da081d1bdad95b9cc81b19599d60621b604082015260600190565b6020808252600f908201526e2737ba1030b71034b73b32b9ba37b960891b604082015260600190565b6020808252601b908201527f416c726561647920636c61696d6564206f7220726566756e6465640000000000604082015260600190565b6020808252601f908201527f4d696e696d756d20696e766573746d656e7473206e6f74207265616368656400604082015260600190565b6020808252600b908201526a4e6f7420466163746f727960a81b604082015260600190565b60208082526010908201526f14dbd99d0818d85c081c995858da195960821b604082015260600190565b60208082526017908201527f41646472657373206e6f742077686974656c6973746564000000000000000000604082015260600190565b6020808252600b908201526a04e6f20736f6674206361760ac1b604082015260600190565b6020808252600e908201526d49444f206e6f742061637469766560901b604082015260600190565b6020808252600e908201526d2737ba1024a227a1b932b0ba37b960911b604082015260600190565b60208082526010908201526f12185c990818d85c081c995858da195960821b604082015260600190565b6020808252600e908201526d139bdd081e595d0818db1bdcd95960921b604082015260600190565b6020808252601f908201527f5265656e7472616e637947756172643a207265656e7472616e742063616c6c00604082015260600190565b6020808252601c908201527f4e6f7420796574206f70656e20666f7220696e766573746d656e747300000000604082015260600190565b6020808252600e908201526d139bdd081e595d081bdc195b995960921b604082015260600190565b60208082526019908201527f4e6f742049444f43726561746f72206f7220466163746f727900000000000000604082015260600190565b602080825260169082015275139bc81b5bdc99481d1bdad95b9cc81d1bc81cd95b1b60521b604082015260600190565b60ff91909116815260200190565b6000821982111561177b5761177b611908565b500190565b60008261179b57634e487b7160e01b81526012600452602481fd5b500490565b80825b60018086116117b257506117dd565b8187048211156117c4576117c4611908565b808616156117d157918102915b9490941c9380026117a3565b94509492505050565b60006111c960001960ff851684600082611802575060016111c9565b8161180f575060006111c9565b8160018114611825576002811461182f5761185c565b60019150506111c9565b60ff84111561184057611840611908565b6001841b91508482111561185657611856611908565b506111c9565b5060208310610133831016604e8410600b841016171561188f575081810a8381111561188a5761188a611908565b6111c9565b61189c84848460016117a0565b8086048211156118ae576118ae611908565b02949350505050565b60008160001904831182151516156118d1576118d1611908565b500290565b6000828210156118e8576118e8611908565b500390565b600060001982141561190157611901611908565b5060010190565b634e487b7160e01b600052601160045260246000fdfea264697066735822122045f9f98c7939ee293d2ab2773bbd3d4160f09c5a8e1ab0627e2bd8f32ce4fe0c64736f6c63430008010033",
    "sourcePath": "/home/null/Desktop/IDO/contracts/IdoBase.sol",
    "compiler": {
        "name": "solc",
        "version": "0.8.1+commit.df193b15"
    },
    "functionHashes": {
        "IDOCreator()": "bd7eb7fc",
        "IdoCreatorClaim()": "6fb0cbb7",
        "IdoCreatorClaimTime()": "f6c638cf",
        "active()": "02fb0c5e",
        "addwhitelistedAddresses(address[])": "89bc9cb5",
        "cancelAndTransferTokensToIdoCreator()": "4d48b487",
        "claimTokens()": "48c54b9d",
        "closeTime()": "627749e6",
        "collectFundsRaised()": "6cb96287",
        "decimals()": "313ce567",
        "factoryAddress()": "966dae0e",
        "getRefund()": "b2d5ae44",
        "hardCapInWei()": "0ca99ca8",
        "idoId()": "b4f0e4a7",
        "invest()": "e8b5e51f",
        "linkDiscord()": "4b8eb855",
        "linkTelegram()": "74458306",
        "linkTwitter()": "0cdc1fc5",
        "linkWebsite()": "89771dd8",
        "listingPriceInWei()": "a7578aa5",
        "maxInvestInWei()": "9fa1eccc",
        "minInvestInWei()": "e861e34d",
        "openTime()": "b4256888",
        "remainingTokensAddress()": "b9ff4b94",
        "saleTitle()": "c502b13b",
        "setAddresses(address,address,address)": "363bf964",
        "setGeneralInfo(uint256,uint256,uint256,uint256,uint256,uint256,uint256,uint256,uint8)": "8ed03b43",
        "setIdoInfo(uint256)": "789cdecb",
        "setStringInfo(bytes32,bytes32,bytes32,bytes32,bytes32)": "eaa2288b",
        "softCapInWei()": "d6c86b1b",
        "teamAddress()": "1c75f085",
        "token()": "fc0c546a",
        "tokenPriceInWei()": "2f8de810",
        "tokensLeft()": "b31f8f93",
        "totalCollectedWei()": "c51d16b6",
        "totalInvestors()": "29b8caff",
        "totalTokens()": "7e1c0c09"
    },
    "gasEstimates": {
        "creation": {
            "codeDepositCost": "1296800",
            "executionCost": "infinite",
            "totalCost": "infinite"
        },
        "external": {
            "IDOCreator()": "1148",
            "IdoCreatorClaim()": "1073",
            "IdoCreatorClaimTime()": "1138",
            "active()": "1087",
            "addwhitelistedAddresses(address[])": "infinite",
            "cancelAndTransferTokensToIdoCreator()": "infinite",
            "claimTokens()": "infinite",
            "closeTime()": "1118",
            "collectFundsRaised()": "infinite",
            "decimals()": "1136",
            "factoryAddress()": "1160",
            "getRefund()": "infinite",
            "hardCapInWei()": "1097",
            "idoId()": "1161",
            "invest()": "infinite",
            "linkDiscord()": "1074",
            "linkTelegram()": "1095",
            "linkTwitter()": "1119",
            "linkWebsite()": "1161",
            "listingPriceInWei()": "1073",
            "maxInvestInWei()": "1140",
            "minInvestInWei()": "1072",
            "openTime()": "1139",
            "remainingTokensAddress()": "1115",
            "saleTitle()": "1117",
            "setAddresses(address,address,address)": "infinite",
            "setGeneralInfo(uint256,uint256,uint256,uint256,uint256,uint256,uint256,uint256,uint8)": "202568",
            "setIdoInfo(uint256)": "21153",
            "setStringInfo(bytes32,bytes32,bytes32,bytes32,bytes32)": "102118",
            "softCapInWei()": "1161",
            "teamAddress()": "1183",
            "token()": "1202",
            "tokenPriceInWei()": "1096",
            "tokensLeft()": "1117",
            "totalCollectedWei()": "1139",
            "totalInvestors()": "1074",
            "totalTokens()": "1139"
        },
        "internal": {
            "getTokenAmount(uint256)": "infinite"
        }
    }
}