{
    "contractName": "IDOFactory",
    "abi": [
        {
            "anonymous": false,
            "inputs": [
                {
                    "indexed": false,
                    "internalType": "bytes32",
                    "name": "title",
                    "type": "bytes32"
                },
                {
                    "indexed": false,
                    "internalType": "uint256",
                    "name": "idoId",
                    "type": "uint256"
                },
                {
                    "indexed": false,
                    "internalType": "address",
                    "name": "creator",
                    "type": "address"
                }
            ],
            "name": "IDOCreated",
            "type": "event"
        },
        {
            "anonymous": false,
            "inputs": [
                {
                    "indexed": true,
                    "internalType": "address",
                    "name": "previousOwner",
                    "type": "address"
                },
                {
                    "indexed": true,
                    "internalType": "address",
                    "name": "newOwner",
                    "type": "address"
                }
            ],
            "name": "OwnershipTransferred",
            "type": "event"
        },
        {
            "inputs": [
                {
                    "internalType": "uint256",
                    "name": "",
                    "type": "uint256"
                }
            ],
            "name": "allIdos",
            "outputs": [
                {
                    "components": [
                        {
                            "internalType": "address",
                            "name": "tokenAddress",
                            "type": "address"
                        },
                        {
                            "internalType": "address",
                            "name": "unsoldTokensDumpAddress",
                            "type": "address"
                        },
                        {
                            "internalType": "address[]",
                            "name": "whitelistedAddresses",
                            "type": "address[]"
                        },
                        {
                            "internalType": "uint256",
                            "name": "tokenPriceInWei",
                            "type": "uint256"
                        },
                        {
                            "internalType": "uint256",
                            "name": "hardCapInWei",
                            "type": "uint256"
                        },
                        {
                            "internalType": "uint256",
                            "name": "softCapInWei",
                            "type": "uint256"
                        },
                        {
                            "internalType": "uint256",
                            "name": "maxInvestInWei",
                            "type": "uint256"
                        },
                        {
                            "internalType": "uint256",
                            "name": "minInvestInWei",
                            "type": "uint256"
                        },
                        {
                            "internalType": "uint256",
                            "name": "openTime",
                            "type": "uint256"
                        },
                        {
                            "internalType": "uint256",
                            "name": "closeTime",
                            "type": "uint256"
                        },
                        {
                            "internalType": "uint8",
                            "name": "decimals",
                            "type": "uint8"
                        }
                    ],
                    "internalType": "struct IDOFactory.IdoInfo",
                    "name": "info",
                    "type": "tuple"
                },
                {
                    "components": [
                        {
                            "internalType": "bytes32",
                            "name": "saleTitle",
                            "type": "bytes32"
                        },
                        {
                            "internalType": "bytes32",
                            "name": "linkTelegram",
                            "type": "bytes32"
                        },
                        {
                            "internalType": "bytes32",
                            "name": "linkDiscord",
                            "type": "bytes32"
                        },
                        {
                            "internalType": "bytes32",
                            "name": "linkTwitter",
                            "type": "bytes32"
                        },
                        {
                            "internalType": "bytes32",
                            "name": "linkWebsite",
                            "type": "bytes32"
                        }
                    ],
                    "internalType": "struct IDOFactory.IdoStringInfo",
                    "name": "stringInfo",
                    "type": "tuple"
                },
                {
                    "internalType": "address",
                    "name": "creator",
                    "type": "address"
                }
            ],
            "stateMutability": "view",
            "type": "function"
        },
        {
            "inputs": [
                {
                    "internalType": "uint256",
                    "name": "_newFee",
                    "type": "uint256"
                }
            ],
            "name": "changeFee",
            "outputs": [],
            "stateMutability": "nonpayable",
            "type": "function"
        },
        {
            "inputs": [
                {
                    "internalType": "uint256",
                    "name": "_id",
                    "type": "uint256"
                }
            ],
            "name": "checkIdoDetails",
            "outputs": [
                {
                    "components": [
                        {
                            "components": [
                                {
                                    "internalType": "address",
                                    "name": "tokenAddress",
                                    "type": "address"
                                },
                                {
                                    "internalType": "address",
                                    "name": "unsoldTokensDumpAddress",
                                    "type": "address"
                                },
                                {
                                    "internalType": "address[]",
                                    "name": "whitelistedAddresses",
                                    "type": "address[]"
                                },
                                {
                                    "internalType": "uint256",
                                    "name": "tokenPriceInWei",
                                    "type": "uint256"
                                },
                                {
                                    "internalType": "uint256",
                                    "name": "hardCapInWei",
                                    "type": "uint256"
                                },
                                {
                                    "internalType": "uint256",
                                    "name": "softCapInWei",
                                    "type": "uint256"
                                },
                                {
                                    "internalType": "uint256",
                                    "name": "maxInvestInWei",
                                    "type": "uint256"
                                },
                                {
                                    "internalType": "uint256",
                                    "name": "minInvestInWei",
                                    "type": "uint256"
                                },
                                {
                                    "internalType": "uint256",
                                    "name": "openTime",
                                    "type": "uint256"
                                },
                                {
                                    "internalType": "uint256",
                                    "name": "closeTime",
                                    "type": "uint256"
                                },
                                {
                                    "internalType": "uint8",
                                    "name": "decimals",
                                    "type": "uint8"
                                }
                            ],
                            "internalType": "struct IDOFactory.IdoInfo",
                            "name": "info",
                            "type": "tuple"
                        },
                        {
                            "components": [
                                {
                                    "internalType": "bytes32",
                                    "name": "saleTitle",
                                    "type": "bytes32"
                                },
                                {
                                    "internalType": "bytes32",
                                    "name": "linkTelegram",
                                    "type": "bytes32"
                                },
                                {
                                    "internalType": "bytes32",
                                    "name": "linkDiscord",
                                    "type": "bytes32"
                                },
                                {
                                    "internalType": "bytes32",
                                    "name": "linkTwitter",
                                    "type": "bytes32"
                                },
                                {
                                    "internalType": "bytes32",
                                    "name": "linkWebsite",
                                    "type": "bytes32"
                                }
                            ],
                            "internalType": "struct IDOFactory.IdoStringInfo",
                            "name": "stringInfo",
                            "type": "tuple"
                        },
                        {
                            "internalType": "address",
                            "name": "creator",
                            "type": "address"
                        }
                    ],
                    "internalType": "struct IDOFactory.IDOMAster",
                    "name": "master_",
                    "type": "tuple"
                }
            ],
            "stateMutability": "view",
            "type": "function"
        },
        {
            "inputs": [
                {
                    "components": [
                        {
                            "internalType": "address",
                            "name": "tokenAddress",
                            "type": "address"
                        },
                        {
                            "internalType": "address",
                            "name": "unsoldTokensDumpAddress",
                            "type": "address"
                        },
                        {
                            "internalType": "address[]",
                            "name": "whitelistedAddresses",
                            "type": "address[]"
                        },
                        {
                            "internalType": "uint256",
                            "name": "tokenPriceInWei",
                            "type": "uint256"
                        },
                        {
                            "internalType": "uint256",
                            "name": "hardCapInWei",
                            "type": "uint256"
                        },
                        {
                            "internalType": "uint256",
                            "name": "softCapInWei",
                            "type": "uint256"
                        },
                        {
                            "internalType": "uint256",
                            "name": "maxInvestInWei",
                            "type": "uint256"
                        },
                        {
                            "internalType": "uint256",
                            "name": "minInvestInWei",
                            "type": "uint256"
                        },
                        {
                            "internalType": "uint256",
                            "name": "openTime",
                            "type": "uint256"
                        },
                        {
                            "internalType": "uint256",
                            "name": "closeTime",
                            "type": "uint256"
                        },
                        {
                            "internalType": "uint8",
                            "name": "decimals",
                            "type": "uint8"
                        }
                    ],
                    "internalType": "struct IDOFactory.IdoInfo",
                    "name": "info_",
                    "type": "tuple"
                },
                {
                    "components": [
                        {
                            "internalType": "bytes32",
                            "name": "saleTitle",
                            "type": "bytes32"
                        },
                        {
                            "internalType": "bytes32",
                            "name": "linkTelegram",
                            "type": "bytes32"
                        },
                        {
                            "internalType": "bytes32",
                            "name": "linkDiscord",
                            "type": "bytes32"
                        },
                        {
                            "internalType": "bytes32",
                            "name": "linkTwitter",
                            "type": "bytes32"
                        },
                        {
                            "internalType": "bytes32",
                            "name": "linkWebsite",
                            "type": "bytes32"
                        }
                    ],
                    "internalType": "struct IDOFactory.IdoStringInfo",
                    "name": "stringInfo_",
                    "type": "tuple"
                }
            ],
            "name": "createPresale",
            "outputs": [],
            "stateMutability": "payable",
            "type": "function"
        },
        {
            "inputs": [],
            "name": "owner",
            "outputs": [
                {
                    "internalType": "address",
                    "name": "",
                    "type": "address"
                }
            ],
            "stateMutability": "view",
            "type": "function"
        },
        {
            "inputs": [],
            "name": "renounceOwnership",
            "outputs": [],
            "stateMutability": "nonpayable",
            "type": "function"
        },
        {
            "inputs": [
                {
                    "internalType": "address",
                    "name": "newOwner",
                    "type": "address"
                }
            ],
            "name": "transferOwnership",
            "outputs": [],
            "stateMutability": "nonpayable",
            "type": "function"
        }
    ],
    "bytecode": "60806040526000600155662386f26fc1000060035534801561002057600080fd5b5061003161002c610036565b61003a565b61008a565b3390565b600080546001600160a01b038381166001600160a01b0319831681178455604051919092169283917f8be0079c531659141344cd1fd0a4f28419497f9722a3daafe3b4186f6b6457e09190a35050565b612ef6806100996000396000f3fe6080604052600436106200007a5760003560e01c8063715018a61162000055578063715018a614620001195780638da5cb5b1462000131578063e677a8f01462000158578063f2fde38b146200016f576200007a565b806329806fa4146200007f578063314ea96c14620000bc5780636a1db1bf14620000f2575b600080fd5b3480156200008c57600080fd5b50620000a46200009e36600462000c3e565b62000194565b604051620000b3919062000f3b565b60405180910390f35b348015620000c957600080fd5b50620000e1620000db36600462000c3e565b62000305565b604051620000b39392919062000f8f565b348015620000ff57600080fd5b50620001176200011136600462000c3e565b6200045e565b005b3480156200012657600080fd5b5062000117620004b2565b3480156200013e57600080fd5b506200014962000506565b604051620000b3919062000dab565b620001176200016936600462000bde565b62000515565b3480156200017c57600080fd5b50620001176200018e36600462000b96565b620007e4565b6200019e62000aba565b60008281526002602081815260409283902083516101c08101855281546001600160a01b03908116606083019081526001840154909116608083015293820180548651818602810186019097528087529195929486949093869360a087019391928301828280156200023a57602002820191906000526020600020905b81546001600160a01b031681526001909101906020018083116200021b575b50505091835250506003820154602080830191909152600483015460408084019190915260058401546060808501919091526006850154608080860191909152600786015460a080870191909152600887015460c0870152600987015460e0870152600a9096015460ff166101009095019490945294865280519384018152600b8701548452600c87015484830152600d87015484820152600e87015494840194909452600f860154918301919091528301526010909201546001600160a01b031691015292915050565b60026020818152600092835260409283902083516101608101855281546001600160a01b039081168252600183015416818401529281018054855181850281018501875281815292958694908601939291908301828280156200039257602002820191906000526020600020905b81546001600160a01b0316815260019091019060200180831162000373575b5050505050815260200160038201548152602001600482015481526020016005820154815260200160068201548152602001600782015481526020016008820154815260200160098201548152602001600a820160009054906101000a900460ff1660ff1660ff16815250509080600b016040518060a001604052908160008201548152602001600182015481526020016002820154815260200160038201548152602001600482015481525050908060100160009054906101000a90046001600160a01b0316905083565b6200046862000861565b6001600160a01b03166200047b62000506565b6001600160a01b031614620004ad5760405162461bcd60e51b8152600401620004a49062000f06565b60405180910390fd5b600355565b620004bc62000861565b6001600160a01b0316620004cf62000506565b6001600160a01b031614620004f85760405162461bcd60e51b8152600401620004a49062000f06565b62000504600062000865565b565b6000546001600160a01b031690565b6003543414620005395760405162461bcd60e51b8152600401620004a49062000ed7565b60006200054a602084018462000b96565b90506000306200055962000506565b604051620005679062000aeb565b6200057492919062000dbf565b604051809103906000f08015801562000591573d6000803e3d6000fd5b50905060006060850135620005af6101608701610140880162000c57565b620005c29060ff16608088013562001097565b620005ce919062001076565b6040516323b872dd60e01b81529091506001600160a01b038416906323b872dd90620006039033908690869060040162000dd9565b602060405180830381600087803b1580156200061e57600080fd5b505af115801562000633573d6000803e3d6000fd5b505050506040513d601f19601f8201168201806040525081019062000659919062000bbc565b6200066357600080fd5b62000676828287606001358888620008b5565b60015460405163789cdecb60e01b81526001600160a01b0384169163789cdecb91620006a6919060040162000fce565b600060405180830381600087803b158015620006c157600080fd5b505af1158015620006d6573d6000803e3d6000fd5b505060015460009081526002602052604090208792509050620006fa8282620011e1565b505060015460009081526002602052604090208490600b016200071e82826200129d565b505060018054600090815260026020526040812060100180546001600160a01b0319163317905560048054928301815590528590600b027f8a35acfbc15ff81a39ae7d344fd709f28e8600b4aa8c65c6b64bfe7fe36bd19b01620007838282620011e1565b50506001546040517f21175ed1a6a220a18832f9578db0f514f496af00257c762045f9947484994ad291620007be9187359190339062000e72565b60405180910390a160018054906000620007d88362001169565b91905055505050505050565b620007ee62000861565b6001600160a01b03166200080162000506565b6001600160a01b0316146200082a5760405162461bcd60e51b8152600401620004a49062000f06565b6001600160a01b038116620008535760405162461bcd60e51b8152600401620004a49062000e91565b6200085e8162000865565b50565b3390565b600080546001600160a01b038381166001600160a01b0319831681178455604051919092169283917f8be0079c531659141344cd1fd0a4f28419497f9722a3daafe3b4186f6b6457e09190a35050565b6001600160a01b0385166390107afe33620008d4602086018662000b96565b6040518363ffffffff1660e01b8152600401620008f392919062000dbf565b600060405180830381600087803b1580156200090e57600080fd5b505af115801562000923573d6000803e3d6000fd5b5050506001600160a01b0386169050638ed03b438585608086013560a087013560c088013560e08901356101008a01356101208b01356200096d6101608d016101408e0162000c57565b6040518a63ffffffff1660e01b8152600401620009939998979695949392919062000fd7565b600060405180830381600087803b158015620009ae57600080fd5b505af1158015620009c3573d6000803e3d6000fd5b50506040805163eaa2288b60e01b81526001600160a01b038916935063eaa2288b925062000a0d918535916020870135918701359060608801359060808901359060040162000e4f565b600060405180830381600087803b15801562000a2857600080fd5b505af115801562000a3d573d6000803e3d6000fd5b5050506001600160a01b03861690506389bc9cb562000a60604085018562001019565b6040518363ffffffff1660e01b815260040162000a7f92919062000dfd565b600060405180830381600087803b15801562000a9a57600080fd5b505af115801562000aaf573d6000803e3d6000fd5b505050505050505050565b604051806060016040528062000acf62000af9565b815260200162000ade62000b68565b8152600060209091015290565b611b92806200132f83390190565b60405180610160016040528060006001600160a01b0316815260200160006001600160a01b031681526020016060815260200160008152602001600081526020016000815260200160008152602001600081526020016000815260200160008152602001600060ff1681525090565b6040805160a08101825260008082526020820181905291810182905260608101829052608081019190915290565b60006020828403121562000ba8578081fd5b813562000bb58162001308565b9392505050565b60006020828403121562000bce578081fd5b8151801515811462000bb5578182fd5b60008082840360c081121562000bf2578182fd5b833567ffffffffffffffff81111562000c09578283fd5b8401610160818703121562000c1c578283fd5b925060a0601f198201121562000c30578182fd5b506020830190509250929050565b60006020828403121562000c50578081fd5b5035919050565b60006020828403121562000c69578081fd5b813562000bb5816200131e565b6001600160a01b03169052565b6000815180845260208085019450808401835b8381101562000cbd5781516001600160a01b03168752958201959082019060010162000c96565b509495945050505050565b600061016062000cda84845162000c76565b602083015162000cee602086018262000c76565b50604083015181604086015262000d088286018262000c83565b915050606083015160608501526080830151608085015260a083015160a085015260c083015160c085015260e083015160e08501526101008084015181860152506101208084015181860152506101408084015162000d6a8287018262000da4565b5090949350505050565b80518252602081015160208301526040810151604083015260608101516060830152608081015160808301525050565b60ff169052565b6001600160a01b0391909116815260200190565b6001600160a01b0392831681529116602082015260400190565b6001600160a01b039384168152919092166020820152604081019190915260600190565b60208082528181018390526000908460408401835b8681101562000e4457823562000e288162001308565b6001600160a01b03168252918301919083019060010162000e12565b509695505050505050565b948552602085019390935260408401919091526060830152608082015260a00190565b92835260208301919091526001600160a01b0316604082015260600190565b60208082526026908201527f4f776e61626c653a206e6577206f776e657220697320746865207a65726f206160408201526564647265737360d01b606082015260800190565b602080825260159082015274024b731b7b93932b1ba102332b29030b6b7bab73a1605d1b604082015260600190565b6020808252818101527f4f776e61626c653a2063616c6c6572206973206e6f7420746865206f776e6572604082015260600190565b600060208252825160e0602084015262000f5a61010084018262000cc8565b9050602084015162000f70604085018262000d74565b50604093909301516001600160a01b031660e092909201919091525090565b600060e0825262000fa460e083018662000cc8565b905062000fb5602083018562000d74565b6001600160a01b039290921660c0919091015292915050565b90815260200190565b988952602089019790975260408801959095526060870193909352608086019190915260a085015260c084015260e083015260ff166101008201526101200190565b6000808335601e1984360301811262001030578283fd5b83018035915067ffffffffffffffff8211156200104b578283fd5b60209081019250810236038213156200106357600080fd5b9250929050565b60009081526020902090565b6000826200109257634e487b7160e01b81526012600452602481fd5b500490565b6000816000190483118215151615620010b457620010b462001187565b500290565b68010000000000000000831115620010e157634e487b7160e01b600052604160045260246000fd5b8054838255808410156200111b576000828152602081208581019083015b808210156200111757828255600182019150620010ff565b5050505b508162001128826200106a565b6000805b8681101562001160576200114c62001144856200119d565b8385620012de565b60209390930192600192830192016200112c565b50505050505050565b600060001982141562001180576200118062001187565b5060010190565b634e487b7160e01b600052601160045260246000fd5b60008135620011ac8162001308565b92915050565b60008135620011ac816200131e565b80546001600160a01b0319166001600160a01b0392909216919091179055565b620011f7620011f0836200119d565b82620011c1565b6200121362001209602084016200119d565b60018301620011c1565b62001222604083018362001019565b62001232818360028601620010b9565b5050606082013560038201556080820135600482015560a0820135600582015560c0820135600682015560e0820135600782015561010082013560088201556101208201356009820155620012996200128f6101408401620011b2565b600a8301620012cd565b5050565b81358155602082013560018201556040820135600282015560608201356003820155608082013560048201555050565b60ff821660ff198254161781555050565b80546001600160a01b0360089390930283811b80199092169490931690921b909116919091179055565b6001600160a01b03811681146200085e57600080fd5b60ff811681146200085e57600080fdfe60806040523480156200001157600080fd5b5060405162001b9238038062001b928339810160408190526200003491620000d1565b60016000556001600160a01b038216158015906200005a57506001600160a01b03811615155b620000825760405162461bcd60e51b8152600401620000799062000108565b60405180910390fd5b600180546001600160a01b039384166001600160a01b031991821617909155600280549290931691161790556200013f565b80516001600160a01b0381168114620000cc57600080fd5b919050565b60008060408385031215620000e4578182fd5b620000ef83620000b4565b9150620000ff60208401620000b4565b90509250929050565b60208082526018908201527f617267732063616e6e6f74206265206164647265737320300000000000000000604082015260600190565b611a43806200014f6000396000f3fe6080604052600436106102135760003560e01c80638ed03b4311610118578063b8e010de116100a0578063d6c86b1b1161006f578063d6c86b1b1461051b578063e861e34d14610530578063e8b5e51f14610545578063eaa2288b1461054d578063fc0c546a1461056d57610222565b8063b8e010de146104c7578063bd7eb7fc146104dc578063c502b13b146104f1578063c51d16b61461050657610222565b8063a7578aa5116100e7578063a7578aa51461045e578063b2d5ae4414610473578063b31f8f9314610488578063b42568881461049d578063b4f0e4a7146104b257610222565b80638ed03b43146103f457806390107afe14610414578063966dae0e146104345780639fa1eccc1461044957610222565b80634d48b4871161019b578063744583061161016a5780637445830614610375578063789cdecb1461038a5780637e1c0c09146103aa57806389771dd8146103bf57806389bc9cb5146103d457610222565b80634d48b48714610321578063627749e6146103365780636cb962871461034b5780636defbf801461036057610222565b806329b8caff116101e257806329b8caff146102ab5780632f8de810146102c0578063313ce567146102d557806348c54b9d146102f75780634b8eb8551461030c57610222565b806302fb0c5e146102275780630ca99ca8146102525780630cdc1fc5146102745780631c75f0851461028957610222565b3661022257610220610582565b005b600080fd5b34801561023357600080fd5b5061023c6107c1565b60405161024991906113c9565b60405180910390f35b34801561025e57600080fd5b506102676107ca565b60405161024991906113d4565b34801561028057600080fd5b506102676107d0565b34801561029557600080fd5b5061029e6107d6565b604051610249919061139c565b3480156102b757600080fd5b506102676107e5565b3480156102cc57600080fd5b506102676107eb565b3480156102e157600080fd5b506102ea6107f1565b6040516102499190611849565b34801561030357600080fd5b506102206107fa565b34801561031857600080fd5b506102676109bb565b34801561032d57600080fd5b506102206109c1565b34801561034257600080fd5b50610267610b35565b34801561035757600080fd5b50610220610b3b565b34801561036c57600080fd5b5061023c610be8565b34801561038157600080fd5b50610267610bf6565b34801561039657600080fd5b506102206103a53660046112f4565b610bfc565b3480156103b657600080fd5b50610267610c2b565b3480156103cb57600080fd5b50610267610c31565b3480156103e057600080fd5b506102206103ef36600461122b565b610c37565b34801561040057600080fd5b5061022061040f366004611324565b610d0a565b34801561042057600080fd5b5061022061042f3660046111f9565b610def565b34801561044057600080fd5b5061029e610e7a565b34801561045557600080fd5b50610267610e89565b34801561046a57600080fd5b50610267610e8f565b34801561047f57600080fd5b50610220610e95565b34801561049457600080fd5b5061026761107e565b3480156104a957600080fd5b50610267611084565b3480156104be57600080fd5b5061026761108a565b3480156104d357600080fd5b50610220611090565b3480156104e857600080fd5b5061029e6110f4565b3480156104fd57600080fd5b50610267611108565b34801561051257600080fd5b5061026761110e565b34801561052757600080fd5b50610267611114565b34801561053c57600080fd5b5061026761111a565b610220610582565b34801561055957600080fd5b506102206105683660046112ba565b611120565b34801561057957600080fd5b5061029e61117b565b600260005414156105ae5760405162461bcd60e51b81526004016105a59061174c565b60405180910390fd5b600260009081553381526019602052604090205460ff166105e15760405162461bcd60e51b81526004016105a5906115ba565b60165460ff166106035760405162461bcd60e51b81526004016105a59061164d565b600c544210156106255760405162461bcd60e51b81526004016105a590611783565b600d5442106106465760405162461bcd60e51b81526004016105a5906113dd565b600f54600854106106695760405162461bcd60e51b81526004016105a59061169d565b6000600b541161068b5760405162461bcd60e51b81526004016105a590611819565b600b546106973461118a565b11156106b55760405162461bcd60e51b81526004016105a5906114a6565b336000908152601860205260408120546106d0903490611857565b9050600554811015806106e75750600f5460085410155b6107035760405162461bcd60e51b81526004016105a590611534565b600454158061071457506004548111155b6107305760405162461bcd60e51b81526004016105a590611476565b3360009081526018602052604090205461075a5760098054906000610754836119dc565b91905055505b600b54610771576016805461ff0019166101001790555b34600860008282546107839190611857565b90915550503360009081526018602052604090208190556107a33461118a565b600b60008282546107b491906119c5565b9091555050600160005550565b60165460ff1681565b600f5481565b60135481565b6002546001600160a01b031681565b60095481565b60075481565b60065460ff1681565b3360009081526019602052604090205460ff166108295760405162461bcd60e51b81526004016105a5906115ba565b60165460ff1661084b5760405162461bcd60e51b81526004016105a59061164d565b336000908152601860205260409020546108775760405162461bcd60e51b81526004016105a5906114d4565b336000908152601a602052604090205460ff16156108a75760405162461bcd60e51b81526004016105a5906114fd565b601654610100900460ff166108ce5760405162461bcd60e51b81526004016105a59061143f565b600260005414156108f15760405162461bcd60e51b81526004016105a59061174c565b6002600090815533808252601a60209081526040808420805460ff191660011790556003546018909252909220546001600160a01b03929092169163a9059cbb919061093c9061118a565b6040518363ffffffff1660e01b81526004016109599291906113b0565b602060405180830381600087803b15801561097357600080fd5b505af1158015610987573d6000803e3d6000fd5b505050506040513d601f19601f820116820180604052508101906109ab919061129a565b6109b457600080fd5b6001600055565b60145481565b6002546001600160a01b0316331415806109e25750601654610100900460ff165b156109ff5760405162461bcd60e51b81526004016105a5906116c7565b60165460ff16610a0e57600080fd5b6016805460ff191690556003546040516370a0823160e01b81526000916001600160a01b0316906370a0823190610a4990309060040161139c565b60206040518083038186803b158015610a6157600080fd5b505afa158015610a75573d6000803e3d6000fd5b505050506040513d601f19601f82011682018060405250810190610a99919061130c565b90508015610b325760035460065460405163a9059cbb60e01b81526001600160a01b039283169263a9059cbb92610ade926101009091049091169085906004016113b0565b602060405180830381600087803b158015610af857600080fd5b505af1158015610b0c573d6000803e3d6000fd5b505050506040513d601f19601f82011682018060405250810190610b30919061129a565b505b50565b600d5481565b60065461010090046001600160a01b03163314610b6a5760405162461bcd60e51b81526004016105a590611675565b601654610100900460ff16610b915760405162461bcd60e51b81526004016105a59061143f565b60165460ff16610ba057600080fd5b4715610be6576006546040516001600160a01b0361010090920491909116904780156108fc02916000818181858888f19350505050158015610b32573d6000803e3d6000fd5b565b601654610100900460ff1681565b60125481565b6001546001600160a01b03163314610c265760405162461bcd60e51b81526004016105a59061156b565b601755565b600a5481565b60155481565b60065461010090046001600160a01b0316331480610c5f57506001546001600160a01b031633145b610c7b5760405162461bcd60e51b81526004016105a5906117e2565b80610c8557600080fd5b60005b81811015610d0557600160196000858585818110610cb657634e487b7160e01b600052603260045260246000fd5b9050602002016020810190610ccb91906111d8565b6001600160a01b031681526020810191909152604001600020805460ff191691151591909117905580610cfd816119dc565b915050610c88565b505050565b6001546001600160a01b03163314610d345760405162461bcd60e51b81526004016105a59061156b565b60008911610d4157600080fd5b60008811610d4e57600080fd5b60008311610d5b57600080fd5b60008211610d6857600080fd5b60008711610d7557600080fd5b610d7f888a6119a6565b871115610d8b57600080fd5b86861115610d9857600080fd5b84841115610da557600080fd5b818310610db157600080fd5b600a899055600b98909855600796909655600f94909455601092909255600455600555600c55600d556006805460ff191660ff909216919091179055565b6001546001600160a01b03163314610e195760405162461bcd60e51b81526004016105a59061156b565b6001600160a01b03821615801590610e3957506001600160a01b03811615155b610e4257600080fd5b60068054610100600160a81b0319166101006001600160a01b0394851602179055600380546001600160a01b03191691909216179055565b6001546001600160a01b031681565b60045481565b600e5481565b3360009081526019602052604090205460ff16610ec45760405162461bcd60e51b81526004016105a5906115ba565b33600090815260186020526040902054610ef05760405162461bcd60e51b81526004016105a5906114d4565b336000908152601a602052604090205460ff1615610f205760405162461bcd60e51b81526004016105a5906114fd565b60026000541415610f435760405162461bcd60e51b81526004016105a59061174c565b600260005560165460ff161561100457600c54421015610f755760405162461bcd60e51b81526004016105a5906117ba565b600d54421015610f975760405162461bcd60e51b81526004016105a590611724565b600060105411610fb95760405162461bcd60e51b81526004016105a5906115f1565b60105460085410610fdc5760405162461bcd60e51b81526004016105a590611590565b601654610100900460ff16156110045760405162461bcd60e51b81526004016105a5906113fd565b336000908152601a60209081526040808320805460ff191660011790556018909152902054478061103457600080fd5b80821115611040578091505b811561107557604051339083156108fc029084906000818181858888f19350505050158015611073573d6000803e3d6000fd5b505b50506001600055565b600b5481565b600c5481565b60175481565b60065461010090046001600160a01b031633146110bf5760405162461bcd60e51b81526004016105a590611675565b60105460085410156110e35760405162461bcd60e51b81526004016105a590611616565b6016805461ff001916610100179055565b60065461010090046001600160a01b031681565b60115481565b60085481565b60105481565b60055481565b60065461010090046001600160a01b031633148061114857506001546001600160a01b031633145b6111645760405162461bcd60e51b81526004016105a5906117e2565b601194909455601292909255601455601355601555565b6003546001600160a01b031681565b600754600654600091906111a29060ff16600a6118d5565b6111ac90846119a6565b6111b6919061186f565b92915050565b80356001600160a01b03811681146111d357600080fd5b919050565b6000602082840312156111e9578081fd5b6111f2826111bc565b9392505050565b6000806040838503121561120b578081fd5b611214836111bc565b9150611222602084016111bc565b90509250929050565b6000806020838503121561123d578182fd5b823567ffffffffffffffff80821115611254578384fd5b818501915085601f830112611267578384fd5b813581811115611275578485fd5b8660208083028501011115611288578485fd5b60209290920196919550909350505050565b6000602082840312156112ab578081fd5b815180151581146111f2578182fd5b600080600080600060a086880312156112d1578081fd5b505083359560208501359550604085013594606081013594506080013592509050565b600060208284031215611305578081fd5b5035919050565b60006020828403121561131d578081fd5b5051919050565b60008060008060008060008060006101208a8c031215611342578384fd5b8935985060208a0135975060408a0135965060608a0135955060808a0135945060a08a0135935060c08a0135925060e08a013591506101008a013560ff8116811461138b578182fd5b809150509295985092959850929598565b6001600160a01b0391909116815260200190565b6001600160a01b03929092168252602082015260400190565b901515815260200190565b90815260200190565b60208082526006908201526510db1bdcd95960d21b604082015260600190565b60208082526022908201527f49444f20616c72656164792072656163686564206d696e696d756d2074617267604082015261195d60f21b606082015260800190565b6020808252601b908201527f49444f206e6f7420726561647920666f7220636c61696d207965740000000000604082015260600190565b60208082526016908201527513585e081a5b9d995cdd1b595b9d081c995858da195960521b604082015260600190565b602080825260149082015273139bdd081b5d58da081d1bdad95b9cc81b19599d60621b604082015260600190565b6020808252600f908201526e2737ba1030b71034b73b32b9ba37b960891b604082015260600190565b6020808252601b908201527f416c726561647920636c61696d6564206f7220726566756e6465640000000000604082015260600190565b6020808252601f908201527f4d696e696d756d20696e766573746d656e7473206e6f74207265616368656400604082015260600190565b6020808252600b908201526a4e6f7420466163746f727960a81b604082015260600190565b60208082526010908201526f14dbd99d0818d85c081c995858da195960821b604082015260600190565b60208082526017908201527f41646472657373206e6f742077686974656c6973746564000000000000000000604082015260600190565b6020808252600b908201526a04e6f20736f6674206361760ac1b604082015260600190565b6020808252601a908201527f4d696e696d756d20746172676574206e6f742072656163686564000000000000604082015260600190565b6020808252600e908201526d49444f206e6f742061637469766560901b604082015260600190565b6020808252600e908201526d2737ba1024a227a1b932b0ba37b960911b604082015260600190565b60208082526010908201526f12185c990818d85c081c995858da195960821b604082015260600190565b60208082526039908201527f43616e6e6f742063616e63656c2c20496e73756666696369656e74205065726d60408201527f697373696f6e73206f7220746172676574207265616368656400000000000000606082015260800190565b6020808252600e908201526d139bdd081e595d0818db1bdcd95960921b604082015260600190565b6020808252601f908201527f5265656e7472616e637947756172643a207265656e7472616e742063616c6c00604082015260600190565b6020808252601c908201527f4e6f7420796574206f70656e20666f7220696e766573746d656e747300000000604082015260600190565b6020808252600e908201526d139bdd081e595d081bdc195b995960921b604082015260600190565b60208082526019908201527f4e6f742049444f43726561746f72206f7220466163746f727900000000000000604082015260600190565b602080825260169082015275139bc81b5bdc99481d1bdad95b9cc81d1bc81cd95b1b60521b604082015260600190565b60ff91909116815260200190565b6000821982111561186a5761186a6119f7565b500190565b60008261188a57634e487b7160e01b81526012600452602481fd5b500490565b80825b60018086116118a157506118cc565b8187048211156118b3576118b36119f7565b808616156118c057918102915b9490941c938002611892565b94509492505050565b60006111f260001960ff8516846000826118f1575060016111f2565b816118fe575060006111f2565b8160018114611914576002811461191e5761194b565b60019150506111f2565b60ff84111561192f5761192f6119f7565b6001841b915084821115611945576119456119f7565b506111f2565b5060208310610133831016604e8410600b841016171561197e575081810a83811115611979576119796119f7565b6111f2565b61198b848484600161188f565b80860482111561199d5761199d6119f7565b02949350505050565b60008160001904831182151516156119c0576119c06119f7565b500290565b6000828210156119d7576119d76119f7565b500390565b60006000198214156119f0576119f06119f7565b5060010190565b634e487b7160e01b600052601160045260246000fdfea26469706673582212208a1e12f41db318513355778dad1e4eaf3df51488c42ac47fc4158c828cb3f23c64736f6c63430008010033a2646970667358221220f7442b99cd1ee0ac81b7cd870b7fa8804d4a8f19fc8d68f1fa2c1b779fd8b74764736f6c63430008010033",
    "sourcePath": "/home/null/Desktop/IDO/contracts/IdoFactory.sol",
    "compiler": {
        "name": "solc",
        "version": "0.8.1+commit.df193b15"
    },
    "functionHashes": {
        "allIdos(uint256)": "314ea96c",
        "changeFee(uint256)": "6a1db1bf",
        "checkIdoDetails(uint256)": "29806fa4",
        "createPresale((address,address,address[],uint256,uint256,uint256,uint256,uint256,uint256,uint256,uint8),(bytes32,bytes32,bytes32,bytes32,bytes32))": "e677a8f0",
        "owner()": "8da5cb5b",
        "renounceOwnership()": "715018a6",
        "transferOwnership(address)": "f2fde38b"
    },
    "gasEstimates": {
        "creation": {
            "codeDepositCost": "2404400",
            "executionCost": "50063",
            "totalCost": "2454463"
        },
        "external": {
            "allIdos(uint256)": "infinite",
            "changeFee(uint256)": "21199",
            "checkIdoDetails(uint256)": "infinite",
            "createPresale((address,address,address[],uint256,uint256,uint256,uint256,uint256,uint256,uint256,uint8),(bytes32,bytes32,bytes32,bytes32,bytes32))": "infinite",
            "owner()": "1092",
            "renounceOwnership()": "23504",
            "transferOwnership(address)": "infinite"
        },
        "internal": {
            "inititalizeIdo(contract IDOBase,uint256,uint256,struct IDOFactory.IdoInfo calldata,struct IDOFactory.IdoStringInfo calldata)": "infinite"
        }
    }
}